{
  "contractName": "Storage",
  "abi": [
    {
      "inputs": [
        {
          "internalType": "string",
          "name": "",
          "type": "string"
        }
      ],
      "name": "equipments",
      "outputs": [
        {
          "internalType": "string",
          "name": "symbol",
          "type": "string"
        },
        {
          "internalType": "string",
          "name": "is_leased",
          "type": "string"
        },
        {
          "internalType": "string",
          "name": "equipment_name",
          "type": "string"
        },
        {
          "internalType": "string",
          "name": "Model_number",
          "type": "string"
        },
        {
          "internalType": "string",
          "name": "status",
          "type": "string"
        },
        {
          "internalType": "string",
          "name": "Production_parameter",
          "type": "string"
        },
        {
          "internalType": "string",
          "name": "Transportation_information",
          "type": "string"
        },
        {
          "internalType": "string",
          "name": "date",
          "type": "string"
        }
      ],
      "stateMutability": "view",
      "type": "function",
      "constant": true
    },
    {
      "inputs": [
        {
          "internalType": "string",
          "name": "_symbol",
          "type": "string"
        },
        {
          "internalType": "string",
          "name": "lease",
          "type": "string"
        },
        {
          "internalType": "string",
          "name": "_equipment_name",
          "type": "string"
        },
        {
          "internalType": "string",
          "name": "_Model_number",
          "type": "string"
        },
        {
          "internalType": "string",
          "name": "_status",
          "type": "string"
        },
        {
          "internalType": "string",
          "name": "_Production_parameter",
          "type": "string"
        },
        {
          "internalType": "string",
          "name": "_Transportation_information",
          "type": "string"
        },
        {
          "internalType": "string",
          "name": "_date",
          "type": "string"
        }
      ],
      "name": "addMachine",
      "outputs": [
        {
          "internalType": "int256",
          "name": "",
          "type": "int256"
        }
      ],
      "stateMutability": "nonpayable",
      "type": "function"
    },
    {
      "inputs": [
        {
          "internalType": "string",
          "name": "_symbol",
          "type": "string"
        }
      ],
      "name": "get_equipment_message",
      "outputs": [
        {
          "internalType": "string",
          "name": "",
          "type": "string"
        },
        {
          "internalType": "string",
          "name": "",
          "type": "string"
        },
        {
          "internalType": "string",
          "name": "",
          "type": "string"
        },
        {
          "internalType": "string",
          "name": "",
          "type": "string"
        },
        {
          "internalType": "string",
          "name": "",
          "type": "string"
        },
        {
          "internalType": "string",
          "name": "",
          "type": "string"
        },
        {
          "internalType": "string",
          "name": "",
          "type": "string"
        },
        {
          "internalType": "string",
          "name": "",
          "type": "string"
        }
      ],
      "stateMutability": "view",
      "type": "function",
      "constant": true
    },
    {
      "inputs": [],
      "name": "get_equipment_Count",
      "outputs": [
        {
          "internalType": "int256",
          "name": "",
          "type": "int256"
        }
      ],
      "stateMutability": "view",
      "type": "function",
      "constant": true
    }
  ],
  "bytecode": "0x60806040526000805534801561001457600080fd5b506112c3806100246000396000f3fe608060405234801561001057600080fd5b506004361061004c5760003560e01c806319ccbab31461005157806386d4469f1461006f578063b415a383146100a6578063f9634bb3146100dd575b600080fd5b61005961010d565b6040516100669190610f84565b60405180910390f35b61008960048036038101906100849190610d41565b610116565b60405161009d989796959493929190610f9f565b60405180910390f35b6100c060048036038101906100bb9190610d41565b6105b4565b6040516100d4989796959493929190610f9f565b60405180910390f35b6100f760048036038101906100f29190610d82565b610ac2565b6040516101049190610f84565b60405180910390f35b60008054905090565b60018180516020810182018051848252602083016020850120818352809550505050505060009150905080600001805461014f906111bd565b80601f016020809104026020016040519081016040528092919081815260200182805461017b906111bd565b80156101c85780601f1061019d576101008083540402835291602001916101c8565b820191906000526020600020905b8154815290600101906020018083116101ab57829003601f168201915b5050505050908060010180546101dd906111bd565b80601f0160208091040260200160405190810160405280929190818152602001828054610209906111bd565b80156102565780601f1061022b57610100808354040283529160200191610256565b820191906000526020600020905b81548152906001019060200180831161023957829003601f168201915b50505050509080600201805461026b906111bd565b80601f0160208091040260200160405190810160405280929190818152602001828054610297906111bd565b80156102e45780601f106102b9576101008083540402835291602001916102e4565b820191906000526020600020905b8154815290600101906020018083116102c757829003601f168201915b5050505050908060030180546102f9906111bd565b80601f0160208091040260200160405190810160405280929190818152602001828054610325906111bd565b80156103725780601f1061034757610100808354040283529160200191610372565b820191906000526020600020905b81548152906001019060200180831161035557829003601f168201915b505050505090806004018054610387906111bd565b80601f01602080910402602001604051908101604052809291908181526020018280546103b3906111bd565b80156104005780601f106103d557610100808354040283529160200191610400565b820191906000526020600020905b8154815290600101906020018083116103e357829003601f168201915b505050505090806005018054610415906111bd565b80601f0160208091040260200160405190810160405280929190818152602001828054610441906111bd565b801561048e5780601f106104635761010080835404028352916020019161048e565b820191906000526020600020905b81548152906001019060200180831161047157829003601f168201915b5050505050908060060180546104a3906111bd565b80601f01602080910402602001604051908101604052809291908181526020018280546104cf906111bd565b801561051c5780601f106104f15761010080835404028352916020019161051c565b820191906000526020600020905b8154815290600101906020018083116104ff57829003601f168201915b505050505090806007018054610531906111bd565b80601f016020809104026020016040519081016040528092919081815260200182805461055d906111bd565b80156105aa5780601f1061057f576101008083540402835291602001916105aa565b820191906000526020600020905b81548152906001019060200180831161058d57829003601f168201915b5050505050905088565b606080606080606080606080600060018a6040516105d29190610f6d565b9081526020016040518091039020604051806101000160405290816000820180546105fc906111bd565b80601f0160208091040260200160405190810160405280929190818152602001828054610628906111bd565b80156106755780601f1061064a57610100808354040283529160200191610675565b820191906000526020600020905b81548152906001019060200180831161065857829003601f168201915b5050505050815260200160018201805461068e906111bd565b80601f01602080910402602001604051908101604052809291908181526020018280546106ba906111bd565b80156107075780601f106106dc57610100808354040283529160200191610707565b820191906000526020600020905b8154815290600101906020018083116106ea57829003601f168201915b50505050508152602001600282018054610720906111bd565b80601f016020809104026020016040519081016040528092919081815260200182805461074c906111bd565b80156107995780601f1061076e57610100808354040283529160200191610799565b820191906000526020600020905b81548152906001019060200180831161077c57829003601f168201915b505050505081526020016003820180546107b2906111bd565b80601f01602080910402602001604051908101604052809291908181526020018280546107de906111bd565b801561082b5780601f106108005761010080835404028352916020019161082b565b820191906000526020600020905b81548152906001019060200180831161080e57829003601f168201915b50505050508152602001600482018054610844906111bd565b80601f0160208091040260200160405190810160405280929190818152602001828054610870906111bd565b80156108bd5780601f10610892576101008083540402835291602001916108bd565b820191906000526020600020905b8154815290600101906020018083116108a057829003601f168201915b505050505081526020016005820180546108d6906111bd565b80601f0160208091040260200160405190810160405280929190818152602001828054610902906111bd565b801561094f5780601f106109245761010080835404028352916020019161094f565b820191906000526020600020905b81548152906001019060200180831161093257829003601f168201915b50505050508152602001600682018054610968906111bd565b80601f0160208091040260200160405190810160405280929190818152602001828054610994906111bd565b80156109e15780601f106109b6576101008083540402835291602001916109e1565b820191906000526020600020905b8154815290600101906020018083116109c457829003601f168201915b505050505081526020016007820180546109fa906111bd565b80601f0160208091040260200160405190810160405280929190818152602001828054610a26906111bd565b8015610a735780601f10610a4857610100808354040283529160200191610a73565b820191906000526020600020905b815481529060010190602001808311610a5657829003601f168201915b5050505050815250509050806000015181602001518260400151836060015184608001518560a001518660c001518760e001519850985098509850985098509850985050919395975091939597565b6000806040518061010001604052808b81526020018a81526020018981526020018881526020018781526020018681526020018581526020018481525090508060018b604051610b129190610f6d565b90815260200160405180910390206000820151816000019080519060200190610b3c929190610c36565b506020820151816001019080519060200190610b59929190610c36565b506040820151816002019080519060200190610b76929190610c36565b506060820151816003019080519060200190610b93929190610c36565b506080820151816004019080519060200190610bb0929190610c36565b5060a0820151816005019080519060200190610bcd929190610c36565b5060c0820151816006019080519060200190610bea929190610c36565b5060e0820151816007019080519060200190610c07929190610c36565b509050506001600080828254610c1d91906110dd565b9250508190555060005491505098975050505050505050565b828054610c42906111bd565b90600052602060002090601f016020900481019282610c645760008555610cab565b82601f10610c7d57805160ff1916838001178555610cab565b82800160010185558215610cab579182015b82811115610caa578251825591602001919060010190610c8f565b5b509050610cb89190610cbc565b5090565b5b80821115610cd5576000816000905550600101610cbd565b5090565b6000610cec610ce784611086565b611055565b905082815260208101848484011115610d0457600080fd5b610d0f84828561117b565b509392505050565b600082601f830112610d2857600080fd5b8135610d38848260208601610cd9565b91505092915050565b600060208284031215610d5357600080fd5b600082013567ffffffffffffffff811115610d6d57600080fd5b610d7984828501610d17565b91505092915050565b600080600080600080600080610100898b031215610d9f57600080fd5b600089013567ffffffffffffffff811115610db957600080fd5b610dc58b828c01610d17565b985050602089013567ffffffffffffffff811115610de257600080fd5b610dee8b828c01610d17565b975050604089013567ffffffffffffffff811115610e0b57600080fd5b610e178b828c01610d17565b965050606089013567ffffffffffffffff811115610e3457600080fd5b610e408b828c01610d17565b955050608089013567ffffffffffffffff811115610e5d57600080fd5b610e698b828c01610d17565b94505060a089013567ffffffffffffffff811115610e8657600080fd5b610e928b828c01610d17565b93505060c089013567ffffffffffffffff811115610eaf57600080fd5b610ebb8b828c01610d17565b92505060e089013567ffffffffffffffff811115610ed857600080fd5b610ee48b828c01610d17565b9150509295985092959890939650565b610efd81611171565b82525050565b6000610f0e826110b6565b610f1881856110c1565b9350610f2881856020860161118a565b610f318161127c565b840191505092915050565b6000610f47826110b6565b610f5181856110d2565b9350610f6181856020860161118a565b80840191505092915050565b6000610f798284610f3c565b915081905092915050565b6000602082019050610f996000830184610ef4565b92915050565b6000610100820190508181036000830152610fba818b610f03565b90508181036020830152610fce818a610f03565b90508181036040830152610fe28189610f03565b90508181036060830152610ff68188610f03565b9050818103608083015261100a8187610f03565b905081810360a083015261101e8186610f03565b905081810360c08301526110328185610f03565b905081810360e08301526110468184610f03565b90509998505050505050505050565b6000604051905081810181811067ffffffffffffffff8211171561107c5761107b61124d565b5b8060405250919050565b600067ffffffffffffffff8211156110a1576110a061124d565b5b601f19601f8301169050602081019050919050565b600081519050919050565b600082825260208201905092915050565b600081905092915050565b60006110e882611171565b91506110f383611171565b9250817f7fffffffffffffffffffffffffffffffffffffffffffffffffffffffffffffff0383136000831215161561112e5761112d6111ef565b5b817f8000000000000000000000000000000000000000000000000000000000000000038312600083121615611166576111656111ef565b5b828201905092915050565b6000819050919050565b82818337600083830152505050565b60005b838110156111a857808201518184015260208101905061118d565b838111156111b7576000848401525b50505050565b600060028204905060018216806111d557607f821691505b602082108114156111e9576111e861121e565b5b50919050565b7f4e487b7100000000000000000000000000000000000000000000000000000000600052601160045260246000fd5b7f4e487b7100000000000000000000000000000000000000000000000000000000600052602260045260246000fd5b7f4e487b7100000000000000000000000000000000000000000000000000000000600052604160045260246000fd5b6000601f19601f830116905091905056fea2646970667358221220696918b0a16812b4a316578a6f3c301c4cb26b3cd2741c08c38cf2a97b1e972a64736f6c63430008000033",
  "immutableReferences": {},
  "source": "// SPDX-License-Identifier: MIT\r\npragma solidity ^0.8.0; //\r\n\r\ncontract Storage {\r\n    int256 num=0;\r\n    struct equipment {\r\n        string symbol;//\r\n        string is_leased;//\r\n        string equipment_name;//\r\n        string Model_number;//\r\n        string status;//\r\n        string Production_parameter;//\r\n        string Transportation_information;//\r\n        string date;//\r\n    }\r\n\r\n    mapping (string => equipment) public equipments; // \r\n\r\n    // //\r\n    function addMachine(string memory _symbol,string memory lease,string memory _equipment_name,string memory _Model_number,\r\n    string memory _status,string memory _Production_parameter,string memory _Transportation_information, string memory _date) public returns(int256){\r\n        equipment memory neweqp = equipment(_symbol,lease, _equipment_name, _Model_number, _status, _Production_parameter,_Transportation_information,  _date);\r\n        equipments[_symbol]=neweqp;\r\n        num+=1;\r\n        return num;\r\n    }\r\n\r\n    //\r\n    function get_equipment_message(string memory _symbol) public view returns (string memory ,string memory,string memory,string memory,\r\n    string memory,string memory,string memory,string memory) {\r\n        equipment memory result= equipments[_symbol];\r\n        return (result.symbol,result.is_leased,result.equipment_name,result.Model_number,result.status,\r\n        result.Production_parameter,result.Transportation_information,result.date);\r\n    }\r\n\r\n\r\n    // \r\n    function get_equipment_Count() public view returns (int256) {\r\n        return num;\r\n    }\r\n\r\n}\r\n",
  "sourcePath": "E:\\qq\\\\ocean-Trading _platform\\contracts\\Storage.sol",
  "compiler": {
    "name": "solc",
    "version": "0.8.0+commit.c7dfd78e.Emscripten.clang"
  },
  "schemaVersion": "3.4.16",
  "updatedAt": "2024-03-06T07:10:39.079Z",
  "networkType": "ethereum",
  "devdoc": {
    "kind": "dev",
    "methods": {},
    "version": 1
  },
  "userdoc": {
    "kind": "user",
    "methods": {},
    "version": 1
  }
}