{
  "contractName": "Trade",
  "abi": [
    {
      "inputs": [
        {
          "internalType": "uint256",
          "name": "",
          "type": "uint256"
        }
      ],
      "name": "tradings",
      "outputs": [
        {
          "internalType": "uint256",
          "name": "index",
          "type": "uint256"
        },
        {
          "internalType": "address",
          "name": "company_address",
          "type": "address"
        },
        {
          "internalType": "string",
          "name": "company_name",
          "type": "string"
        },
        {
          "internalType": "string",
          "name": "eqm_name",
          "type": "string"
        },
        {
          "internalType": "string",
          "name": "eqm_num",
          "type": "string"
        },
        {
          "internalType": "string",
          "name": "period",
          "type": "string"
        },
        {
          "internalType": "string",
          "name": "cycle",
          "type": "string"
        },
        {
          "internalType": "string",
          "name": "rent",
          "type": "string"
        },
        {
          "internalType": "int256",
          "name": "used",
          "type": "int256"
        }
      ],
      "stateMutability": "view",
      "type": "function",
      "constant": true
    },
    {
      "inputs": [
        {
          "internalType": "string",
          "name": "company_name",
          "type": "string"
        },
        {
          "internalType": "string",
          "name": "eqm_name",
          "type": "string"
        },
        {
          "internalType": "string",
          "name": "eqm_num",
          "type": "string"
        },
        {
          "internalType": "string",
          "name": "period",
          "type": "string"
        },
        {
          "internalType": "string",
          "name": "cycle",
          "type": "string"
        },
        {
          "internalType": "string",
          "name": "rent",
          "type": "string"
        }
      ],
      "name": "addTrading",
      "outputs": [],
      "stateMutability": "nonpayable",
      "type": "function"
    },
    {
      "inputs": [
        {
          "internalType": "int256",
          "name": "index",
          "type": "int256"
        }
      ],
      "name": "accept",
      "outputs": [],
      "stateMutability": "nonpayable",
      "type": "function"
    },
    {
      "inputs": [],
      "name": "get",
      "outputs": [
        {
          "internalType": "int256",
          "name": "",
          "type": "int256"
        }
      ],
      "stateMutability": "view",
      "type": "function",
      "constant": true
    },
    {
      "inputs": [
        {
          "internalType": "int256",
          "name": "index",
          "type": "int256"
        }
      ],
      "name": "get_trading",
      "outputs": [
        {
          "internalType": "int256",
          "name": "",
          "type": "int256"
        },
        {
          "internalType": "string",
          "name": "",
          "type": "string"
        },
        {
          "internalType": "string",
          "name": "",
          "type": "string"
        },
        {
          "internalType": "string",
          "name": "",
          "type": "string"
        },
        {
          "internalType": "string",
          "name": "",
          "type": "string"
        },
        {
          "internalType": "string",
          "name": "",
          "type": "string"
        },
        {
          "internalType": "address",
          "name": "",
          "type": "address"
        },
        {
          "internalType": "int256",
          "name": "",
          "type": "int256"
        }
      ],
      "stateMutability": "view",
      "type": "function",
      "constant": true
    }
  ],
  "bytecode": "0x60806040526000805534801561001457600080fd5b50611296806100246000396000f3fe608060405234801561001057600080fd5b50600436106100575760003560e01c806315e69fcb1461005c5780632f765677146100935780632fdf148d146100cb5780636d4ce63c146100e7578063bef725ac14610105575b600080fd5b61007660048036038101906100719190610c85565b610121565b60405161008a989796959493929190610e71565b60405180910390f35b6100ad60048036038101906100a89190610dc7565b610597565b6040516100c299989796959493929190610f12565b60405180910390f35b6100e560048036038101906100e09190610cae565b61093b565b005b6100ef610afe565b6040516100fc9190610e56565b60405180910390f35b61011f600480360381019061011a9190610c85565b610b07565b005b60006060806060806060600080600060018a6064811061016a577f4e487b7100000000000000000000000000000000000000000000000000000000600052603260045260246000fd5b6009020160405180610120016040529081600082015481526020016001820160009054906101000a900473ffffffffffffffffffffffffffffffffffffffff1673ffffffffffffffffffffffffffffffffffffffff1673ffffffffffffffffffffffffffffffffffffffff1681526020016002820180546101ea90611162565b80601f016020809104026020016040519081016040528092919081815260200182805461021690611162565b80156102635780601f1061023857610100808354040283529160200191610263565b820191906000526020600020905b81548152906001019060200180831161024657829003601f168201915b5050505050815260200160038201805461027c90611162565b80601f01602080910402602001604051908101604052809291908181526020018280546102a890611162565b80156102f55780601f106102ca576101008083540402835291602001916102f5565b820191906000526020600020905b8154815290600101906020018083116102d857829003601f168201915b5050505050815260200160048201805461030e90611162565b80601f016020809104026020016040519081016040528092919081815260200182805461033a90611162565b80156103875780601f1061035c57610100808354040283529160200191610387565b820191906000526020600020905b81548152906001019060200180831161036a57829003601f168201915b505050505081526020016005820180546103a090611162565b80601f01602080910402602001604051908101604052809291908181526020018280546103cc90611162565b80156104195780601f106103ee57610100808354040283529160200191610419565b820191906000526020600020905b8154815290600101906020018083116103fc57829003601f168201915b5050505050815260200160068201805461043290611162565b80601f016020809104026020016040519081016040528092919081815260200182805461045e90611162565b80156104ab5780601f10610480576101008083540402835291602001916104ab565b820191906000526020600020905b81548152906001019060200180831161048e57829003601f168201915b505050505081526020016007820180546104c490611162565b80601f01602080910402602001604051908101604052809291908181526020018280546104f090611162565b801561053d5780601f106105125761010080835404028352916020019161053d565b820191906000526020600020905b81548152906001019060200180831161052057829003601f168201915b5050505050815260200160088201548152505090508060000151816060015182608001518360a001518460c001518560e0015186602001518761010001519850985098509850985098509850985050919395975091939597565b600181606481106105a757600080fd5b600902016000915090508060000154908060010160009054906101000a900473ffffffffffffffffffffffffffffffffffffffff16908060020180546105ec90611162565b80601f016020809104026020016040519081016040528092919081815260200182805461061890611162565b80156106655780601f1061063a57610100808354040283529160200191610665565b820191906000526020600020905b81548152906001019060200180831161064857829003601f168201915b50505050509080600301805461067a90611162565b80601f01602080910402602001604051908101604052809291908181526020018280546106a690611162565b80156106f35780601f106106c8576101008083540402835291602001916106f3565b820191906000526020600020905b8154815290600101906020018083116106d657829003601f168201915b50505050509080600401805461070890611162565b80601f016020809104026020016040519081016040528092919081815260200182805461073490611162565b80156107815780601f1061075657610100808354040283529160200191610781565b820191906000526020600020905b81548152906001019060200180831161076457829003601f168201915b50505050509080600501805461079690611162565b80601f01602080910402602001604051908101604052809291908181526020018280546107c290611162565b801561080f5780601f106107e45761010080835404028352916020019161080f565b820191906000526020600020905b8154815290600101906020018083116107f257829003601f168201915b50505050509080600601805461082490611162565b80601f016020809104026020016040519081016040528092919081815260200182805461085090611162565b801561089d5780601f106108725761010080835404028352916020019161089d565b820191906000526020600020905b81548152906001019060200180831161088057829003601f168201915b5050505050908060070180546108b290611162565b80601f01602080910402602001604051908101604052809291908181526020018280546108de90611162565b801561092b5780601f106109005761010080835404028352916020019161092b565b820191906000526020600020905b81548152906001019060200180831161090e57829003601f168201915b5050505050908060080154905089565b600160005461094a9190611046565b60008190555060405180610120016040528060005481526020013373ffffffffffffffffffffffffffffffffffffffff16815260200187815260200186815260200185815260200184815260200183815260200182815260200160008152506001600054606481106109e5577f4e487b7100000000000000000000000000000000000000000000000000000000600052603260045260246000fd5b600902016000820151816000015560208201518160010160006101000a81548173ffffffffffffffffffffffffffffffffffffffff021916908373ffffffffffffffffffffffffffffffffffffffff1602179055506040820151816002019080519060200190610a56929190610b50565b506060820151816003019080519060200190610a73929190610b50565b506080820151816004019080519060200190610a90929190610b50565b5060a0820151816005019080519060200190610aad929190610b50565b5060c0820151816006019080519060200190610aca929190610b50565b5060e0820151816007019080519060200190610ae7929190610b50565b506101008201518160080155905050505050505050565b60008054905090565b6001808260648110610b42577f4e487b7100000000000000000000000000000000000000000000000000000000600052603260045260246000fd5b600902016008018190555050565b828054610b5c90611162565b90600052602060002090601f016020900481019282610b7e5760008555610bc5565b82601f10610b9757805160ff1916838001178555610bc5565b82800160010185558215610bc5579182015b82811115610bc4578251825591602001919060010190610ba9565b5b509050610bd29190610bd6565b5090565b5b80821115610bef576000816000905550600101610bd7565b5090565b6000610c06610c0184610ffa565b610fc9565b905082815260208101848484011115610c1e57600080fd5b610c29848285611120565b509392505050565b600081359050610c4081611232565b92915050565b600082601f830112610c5757600080fd5b8135610c67848260208601610bf3565b91505092915050565b600081359050610c7f81611249565b92915050565b600060208284031215610c9757600080fd5b6000610ca584828501610c31565b91505092915050565b60008060008060008060c08789031215610cc757600080fd5b600087013567ffffffffffffffff811115610ce157600080fd5b610ced89828a01610c46565b965050602087013567ffffffffffffffff811115610d0a57600080fd5b610d1689828a01610c46565b955050604087013567ffffffffffffffff811115610d3357600080fd5b610d3f89828a01610c46565b945050606087013567ffffffffffffffff811115610d5c57600080fd5b610d6889828a01610c46565b935050608087013567ffffffffffffffff811115610d8557600080fd5b610d9189828a01610c46565b92505060a087013567ffffffffffffffff811115610dae57600080fd5b610dba89828a01610c46565b9150509295509295509295565b600060208284031215610dd957600080fd5b6000610de784828501610c70565b91505092915050565b610df9816110da565b82525050565b610e08816110ec565b82525050565b6000610e198261102a565b610e238185611035565b9350610e3381856020860161112f565b610e3c81611221565b840191505092915050565b610e5081611116565b82525050565b6000602082019050610e6b6000830184610dff565b92915050565b600061010082019050610e87600083018b610dff565b8181036020830152610e99818a610e0e565b90508181036040830152610ead8189610e0e565b90508181036060830152610ec18188610e0e565b90508181036080830152610ed58187610e0e565b905081810360a0830152610ee98186610e0e565b9050610ef860c0830185610df0565b610f0560e0830184610dff565b9998505050505050505050565b600061012082019050610f28600083018c610e47565b610f35602083018b610df0565b8181036040830152610f47818a610e0e565b90508181036060830152610f5b8189610e0e565b90508181036080830152610f6f8188610e0e565b905081810360a0830152610f838187610e0e565b905081810360c0830152610f978186610e0e565b905081810360e0830152610fab8185610e0e565b9050610fbb610100830184610dff565b9a9950505050505050505050565b6000604051905081810181811067ffffffffffffffff82111715610ff057610fef6111f2565b5b8060405250919050565b600067ffffffffffffffff821115611015576110146111f2565b5b601f19601f8301169050602081019050919050565b600081519050919050565b600082825260208201905092915050565b6000611051826110ec565b915061105c836110ec565b9250817f7fffffffffffffffffffffffffffffffffffffffffffffffffffffffffffffff0383136000831215161561109757611096611194565b5b817f80000000000000000000000000000000000000000000000000000000000000000383126000831216156110cf576110ce611194565b5b828201905092915050565b60006110e5826110f6565b9050919050565b6000819050919050565b600073ffffffffffffffffffffffffffffffffffffffff82169050919050565b6000819050919050565b82818337600083830152505050565b60005b8381101561114d578082015181840152602081019050611132565b8381111561115c576000848401525b50505050565b6000600282049050600182168061117a57607f821691505b6020821081141561118e5761118d6111c3565b5b50919050565b7f4e487b7100000000000000000000000000000000000000000000000000000000600052601160045260246000fd5b7f4e487b7100000000000000000000000000000000000000000000000000000000600052602260045260246000fd5b7f4e487b7100000000000000000000000000000000000000000000000000000000600052604160045260246000fd5b6000601f19601f8301169050919050565b61123b816110ec565b811461124657600080fd5b50565b61125281611116565b811461125d57600080fd5b5056fea2646970667358221220100585f71478167eb3918bf5cb9a2a8c0b7639c249076de547474b0b2bc4897e64736f6c63430008000033",
  "immutableReferences": {},
  "source": "// SPDX-License-Identifier: MIT\r\npragma solidity ^0.8.0; //\r\n\r\ncontract Trade{\r\n    int256 num=0;\r\n    struct trading{//\r\n        uint256 index;//\r\n        address company_address;\r\n        string company_name;\r\n        string eqm_name;\r\n        string eqm_num;\r\n        string period;\r\n        string cycle;\r\n        string rent;\r\n        int256 used;//\r\n    }    \r\n    trading[100] public tradings;\r\n\r\n    //\r\n    function addTrading(string memory company_name,string memory eqm_name,string memory eqm_num,\r\n        string memory period,string memory cycle,string memory rent)public {       \r\n        num=num+1;\r\n        tradings[uint256(num)]=trading(uint256(num),msg.sender,company_name,eqm_name,eqm_num,period,cycle,rent,0);\r\n    }\r\n\r\n    //\r\n    function accept(int256 index) public {\r\n        tradings[uint256(index)].used=1;//\r\n    }\r\n\r\n    //\r\n    function get()public view returns(int256){\r\n        return num;\r\n    }\r\n\r\n    //\r\n    function get_trading(int256 index) public view returns(int256,string memory,string memory,string memory,string memory,string memory,address,int256){\r\n        trading memory result=tradings[uint256(index)];\r\n        return (int256(result.index),result.eqm_name,result.eqm_num,result.period,result.cycle,result.rent,result.company_address,result.used);\r\n    }\r\n}\r\n",
  "sourcePath": "E:\\qq\\\\ocean-Trading _platform\\contracts\\Trade.sol",
  "compiler": {
    "name": "solc",
    "version": "0.8.0+commit.c7dfd78e.Emscripten.clang"
  },
  "schemaVersion": "3.4.16",
  "updatedAt": "2024-03-06T07:10:39.085Z",
  "networkType": "ethereum",
  "devdoc": {
    "kind": "dev",
    "methods": {},
    "version": 1
  },
  "userdoc": {
    "kind": "user",
    "methods": {},
    "version": 1
  }
}