{
  "contractName": "Adoption",
  "abi": [
    {
      "inputs": [
        {
          "internalType": "uint256",
          "name": "",
          "type": "uint256"
        }
      ],
      "name": "adopters",
      "outputs": [
        {
          "internalType": "address",
          "name": "",
          "type": "address"
        }
      ],
      "stateMutability": "view",
      "type": "function",
      "constant": true
    },
    {
      "inputs": [
        {
          "internalType": "uint256",
          "name": "",
          "type": "uint256"
        }
      ],
      "name": "is_adopted",
      "outputs": [
        {
          "internalType": "bool",
          "name": "",
          "type": "bool"
        }
      ],
      "stateMutability": "view",
      "type": "function",
      "constant": true
    },
    {
      "inputs": [
        {
          "internalType": "uint256",
          "name": "petId",
          "type": "uint256"
        }
      ],
      "name": "adopt",
      "outputs": [
        {
          "internalType": "uint256",
          "name": "",
          "type": "uint256"
        }
      ],
      "stateMutability": "nonpayable",
      "type": "function"
    }
  ],
  "bytecode": "0x608060405234801561001057600080fd5b50610380806100206000396000f3fe608060405234801561001057600080fd5b50600436106100415760003560e01c806343ae80d3146100465780638588b2c514610076578063cd64e3f3146100a6575b600080fd5b610060600480360381019061005b9190610244565b6100d6565b60405161006d919061029a565b60405180910390f35b610090600480360381019061008b9190610244565b61010c565b60405161009d91906102d0565b60405180910390f35b6100c060048036038101906100bb9190610244565b610205565b6040516100cd91906102b5565b60405180910390f35b600081601081106100e657600080fd5b016000915054906101000a900473ffffffffffffffffffffffffffffffffffffffff1681565b600080821015801561011f5750600f8211155b61012857600080fd5b3360008360108110610163577f4e487b7100000000000000000000000000000000000000000000000000000000600052603260045260246000fd5b0160006101000a81548173ffffffffffffffffffffffffffffffffffffffff021916908373ffffffffffffffffffffffffffffffffffffffff1602179055506001601083601081106101de577f4e487b7100000000000000000000000000000000000000000000000000000000600052603260045260246000fd5b602091828204019190066101000a81548160ff021916908315150217905550819050919050565b6010816010811061021557600080fd5b60209182820401919006915054906101000a900460ff1681565b60008135905061023e81610333565b92915050565b60006020828403121561025657600080fd5b60006102648482850161022f565b91505092915050565b610276816102eb565b82525050565b610285816102fd565b82525050565b61029481610329565b82525050565b60006020820190506102af600083018461026d565b92915050565b60006020820190506102ca600083018461027c565b92915050565b60006020820190506102e5600083018461028b565b92915050565b60006102f682610309565b9050919050565b60008115159050919050565b600073ffffffffffffffffffffffffffffffffffffffff82169050919050565b6000819050919050565b61033c81610329565b811461034757600080fd5b5056fea2646970667358221220c1e8c365f7590903e95d1b5d8ef0e984f9ca70f316a1378725aee0091c070b2364736f6c63430008000033",
  "immutableReferences": {},
  "source": "// SPDX-License-Identifier: MIT\r\n\r\npragma solidity ^0.8.0; //控制智能合约编译器的版本\r\n\r\ncontract Adoption {\r\n\r\n  address[16] public adopters;  // 保存领养者的地址,是包括以太坊地址的数组\r\n\r\n  bool[16] public is_adopted;\r\n    // 领养宠物\r\n  function adopt(uint petId) public returns (uint) {\r\n    require(petId >= 0 && petId <= 15);  // 确保id在数组长度内\r\n    adopters[petId] = msg.sender;        // 保存调用者地址\r\n    is_adopted[petId]=true;\r\n    return petId;\r\n  }\r\n\r\n  // // 返回领养者\r\n  // function getAdopters() public view returns (address[16] memory) {\r\n  //   return is_adopted;\r\n  // }\r\n\r\n}\r\n",
  "sourcePath": "E:\\qq文件\\区块链与数字资产\\ocean-Trading _platform\\contracts\\Adoption.sol",
  "compiler": {
    "name": "solc",
    "version": "0.8.0+commit.c7dfd78e.Emscripten.clang"
  },
  "schemaVersion": "3.4.16",
  "updatedAt": "2024-03-06T07:20:25.291Z",
  "networkType": "ethereum",
  "devdoc": {
    "kind": "dev",
    "methods": {},
    "version": 1
  },
  "userdoc": {
    "kind": "user",
    "methods": {},
    "version": 1
  }
}