{
  "contractName": "TimedTrans",
  "abi": [
    {
      "inputs": [
        {
          "internalType": "address",
          "name": "",
          "type": "address"
        },
        {
          "internalType": "uint256",
          "name": "",
          "type": "uint256"
        }
      ],
      "name": "Trans_list",
      "outputs": [
        {
          "internalType": "address payable",
          "name": "recipient",
          "type": "address"
        },
        {
          "internalType": "string",
          "name": "eq_name",
          "type": "string"
        },
        {
          "internalType": "string",
          "name": "eq_num",
          "type": "string"
        },
        {
          "internalType": "int256",
          "name": "transferAmount",
          "type": "int256"
        },
        {
          "internalType": "int256",
          "name": "lastTransferTimestamp",
          "type": "int256"
        },
        {
          "internalType": "int256",
          "name": "transferInterval",
          "type": "int256"
        }
      ],
      "stateMutability": "view",
      "type": "function",
      "constant": true
    },
    {
      "inputs": [
        {
          "internalType": "address payable",
          "name": "recipient",
          "type": "address"
        },
        {
          "internalType": "string",
          "name": "eq_name",
          "type": "string"
        },
        {
          "internalType": "string",
          "name": "eq_num",
          "type": "string"
        },
        {
          "internalType": "int256",
          "name": "transferAmount",
          "type": "int256"
        },
        {
          "internalType": "int256",
          "name": "transferInterval",
          "type": "int256"
        }
      ],
      "name": "addTransfer",
      "outputs": [
        {
          "internalType": "int256",
          "name": "",
          "type": "int256"
        }
      ],
      "stateMutability": "nonpayable",
      "type": "function"
    },
    {
      "inputs": [],
      "name": "get_length",
      "outputs": [
        {
          "internalType": "int256",
          "name": "",
          "type": "int256"
        }
      ],
      "stateMutability": "view",
      "type": "function",
      "constant": true
    },
    {
      "inputs": [
        {
          "internalType": "int256",
          "name": "index",
          "type": "int256"
        }
      ],
      "name": "get_transfer",
      "outputs": [
        {
          "internalType": "address payable",
          "name": "",
          "type": "address"
        },
        {
          "internalType": "string",
          "name": "",
          "type": "string"
        },
        {
          "internalType": "string",
          "name": "",
          "type": "string"
        },
        {
          "internalType": "int256",
          "name": "",
          "type": "int256"
        },
        {
          "internalType": "int256",
          "name": "",
          "type": "int256"
        },
        {
          "internalType": "int256",
          "name": "",
          "type": "int256"
        }
      ],
      "stateMutability": "view",
      "type": "function",
      "constant": true
    },
    {
      "inputs": [
        {
          "internalType": "int256",
          "name": "index",
          "type": "int256"
        }
      ],
      "name": "sendFunds",
      "outputs": [],
      "stateMutability": "payable",
      "type": "function",
      "payable": true
    }
  ],
  "bytecode": "0x60806040526000805534801561001457600080fd5b50611224806100246000396000f3fe60806040526004361061004a5760003560e01c806317c03c461461004f5780631d4975b5146100915780634829f792146100ad578063c0111247146100ef578063eec376911461012c575b600080fd5b34801561005b57600080fd5b5061007660048036038101906100719190610d4b565b610157565b60405161008896959493929190610e6d565b60405180910390f35b6100ab60048036038101906100a69190610d87565b6102e0565b005b3480156100b957600080fd5b506100d460048036038101906100cf9190610d87565b6106f6565b6040516100e696959493929190610e6d565b60405180910390f35b3480156100fb57600080fd5b5061011660048036038101906101119190610ca4565b61095f565b6040516101239190610edc565b60405180910390f35b34801561013857600080fd5b50610141610afb565b60405161014e9190610edc565b60405180910390f35b6001602052816000526040600020818154811061017357600080fd5b9060005260206000209060060201600091509150508060000160009054906101000a900473ffffffffffffffffffffffffffffffffffffffff16908060010180546101bd906110c2565b80601f01602080910402602001604051908101604052809291908181526020018280546101e9906110c2565b80156102365780601f1061020b57610100808354040283529160200191610236565b820191906000526020600020905b81548152906001019060200180831161021957829003601f168201915b50505050509080600201805461024b906110c2565b80601f0160208091040260200160405190810160405280929190818152602001828054610277906110c2565b80156102c45780601f10610299576101008083540402835291602001916102c4565b820191906000526020600020905b8154815290600101906020018083116102a757829003601f168201915b5050505050908060030154908060040154908060050154905086565b6000600160003373ffffffffffffffffffffffffffffffffffffffff1673ffffffffffffffffffffffffffffffffffffffff1681526020019081526020016000208281548110610359577f4e487b7100000000000000000000000000000000000000000000000000000000600052603260045260246000fd5b90600052602060002090600602016004015490506000600160003373ffffffffffffffffffffffffffffffffffffffff1673ffffffffffffffffffffffffffffffffffffffff16815260200190815260200160002083815481106103e6577f4e487b7100000000000000000000000000000000000000000000000000000000600052603260045260246000fd5b9060005260206000209060060201600501549050600160003373ffffffffffffffffffffffffffffffffffffffff1673ffffffffffffffffffffffffffffffffffffffff1681526020019081526020016000208381548110610471577f4e487b7100000000000000000000000000000000000000000000000000000000600052603260045260246000fd5b906000526020600020906006020160050154600160003373ffffffffffffffffffffffffffffffffffffffff1673ffffffffffffffffffffffffffffffffffffffff16815260200190815260200160002084815481106104fa577f4e487b7100000000000000000000000000000000000000000000000000000000600052603260045260246000fd5b9060005260206000209060060201600401600082825461051a9190610f94565b92505081905550808261052d9190610f94565b42101561056f576040517f08c379a000000000000000000000000000000000000000000000000000000000815260040161056690610ef7565b60405180910390fd5b6000600160003373ffffffffffffffffffffffffffffffffffffffff1673ffffffffffffffffffffffffffffffffffffffff16815260200190815260200160002084815481106105e8577f4e487b7100000000000000000000000000000000000000000000000000000000600052603260045260246000fd5b906000526020600020906006020160000160009054906101000a900473ffffffffffffffffffffffffffffffffffffffff1690508073ffffffffffffffffffffffffffffffffffffffff166108fc349081150290604051600060405180830381858888f19350505050158015610662573d6000803e3d6000fd5b5042600160003373ffffffffffffffffffffffffffffffffffffffff1673ffffffffffffffffffffffffffffffffffffffff16815260200190815260200160002085815481106106db577f4e487b7100000000000000000000000000000000000000000000000000000000600052603260045260246000fd5b90600052602060002090600602016004018190555050505050565b6000606080600080600080600160003373ffffffffffffffffffffffffffffffffffffffff1673ffffffffffffffffffffffffffffffffffffffff1681526020019081526020016000208881548110610778577f4e487b7100000000000000000000000000000000000000000000000000000000600052603260045260246000fd5b90600052602060002090600602016040518060c00160405290816000820160009054906101000a900473ffffffffffffffffffffffffffffffffffffffff1673ffffffffffffffffffffffffffffffffffffffff1673ffffffffffffffffffffffffffffffffffffffff1681526020016001820180546107f7906110c2565b80601f0160208091040260200160405190810160405280929190818152602001828054610823906110c2565b80156108705780601f1061084557610100808354040283529160200191610870565b820191906000526020600020905b81548152906001019060200180831161085357829003601f168201915b50505050508152602001600282018054610889906110c2565b80601f01602080910402602001604051908101604052809291908181526020018280546108b5906110c2565b80156109025780601f106108d757610100808354040283529160200191610902565b820191906000526020600020905b8154815290600101906020018083116108e557829003601f168201915b5050505050815260200160038201548152602001600482015481526020016005820154815250509050806000015181602001518260400151836060015184608001518560a001519650965096509650965096505091939550919395565b6000600160003373ffffffffffffffffffffffffffffffffffffffff1673ffffffffffffffffffffffffffffffffffffffff1681526020019081526020016000206040518060c001604052808873ffffffffffffffffffffffffffffffffffffffff16815260200187815260200186815260200185815260200142815260200184815250908060018154018082558091505060019003906000526020600020906006020160009091909190915060008201518160000160006101000a81548173ffffffffffffffffffffffffffffffffffffffff021916908373ffffffffffffffffffffffffffffffffffffffff1602179055506020820151816001019080519060200190610a6f929190610b45565b506040820151816002019080519060200190610a8c929190610b45565b50606082015181600301556080820151816004015560a082015181600501555050600160003373ffffffffffffffffffffffffffffffffffffffff1673ffffffffffffffffffffffffffffffffffffffff16815260200190815260200160002080549050905095945050505050565b6000600160003373ffffffffffffffffffffffffffffffffffffffff1673ffffffffffffffffffffffffffffffffffffffff16815260200190815260200160002080549050905090565b828054610b51906110c2565b90600052602060002090601f016020900481019282610b735760008555610bba565b82601f10610b8c57805160ff1916838001178555610bba565b82800160010185558215610bba579182015b82811115610bb9578251825591602001919060010190610b9e565b5b509050610bc79190610bcb565b5090565b5b80821115610be4576000816000905550600101610bcc565b5090565b6000610bfb610bf684610f48565b610f17565b905082815260208101848484011115610c1357600080fd5b610c1e848285611080565b509392505050565b600081359050610c3581611192565b92915050565b600081359050610c4a816111a9565b92915050565b600081359050610c5f816111c0565b92915050565b600082601f830112610c7657600080fd5b8135610c86848260208601610be8565b91505092915050565b600081359050610c9e816111d7565b92915050565b600080600080600060a08688031215610cbc57600080fd5b6000610cca88828901610c3b565b955050602086013567ffffffffffffffff811115610ce757600080fd5b610cf388828901610c65565b945050604086013567ffffffffffffffff811115610d1057600080fd5b610d1c88828901610c65565b9350506060610d2d88828901610c50565b9250506080610d3e88828901610c50565b9150509295509295909350565b60008060408385031215610d5e57600080fd5b6000610d6c85828601610c26565b9250506020610d7d85828601610c8f565b9150509250929050565b600060208284031215610d9957600080fd5b6000610da784828501610c50565b91505092915050565b610db98161103a565b82525050565b610dc88161104c565b82525050565b6000610dd982610f78565b610de38185610f83565b9350610df381856020860161108f565b610dfc81611181565b840191505092915050565b6000610e14602183610f83565b91507f5472616e7366657220696e74657276616c206e6f7420656c617073656420796560008301527f74000000000000000000000000000000000000000000000000000000000000006020830152604082019050919050565b600060c082019050610e826000830189610db0565b8181036020830152610e948188610dce565b90508181036040830152610ea88187610dce565b9050610eb76060830186610dbf565b610ec46080830185610dbf565b610ed160a0830184610dbf565b979650505050505050565b6000602082019050610ef16000830184610dbf565b92915050565b60006020820190508181036000830152610f1081610e07565b9050919050565b6000604051905081810181811067ffffffffffffffff82111715610f3e57610f3d611152565b5b8060405250919050565b600067ffffffffffffffff821115610f6357610f62611152565b5b601f19601f8301169050602081019050919050565b600081519050919050565b600082825260208201905092915050565b6000610f9f8261104c565b9150610faa8361104c565b9250817f7fffffffffffffffffffffffffffffffffffffffffffffffffffffffffffffff03831360008312151615610fe557610fe46110f4565b5b817f800000000000000000000000000000000000000000000000000000000000000003831260008312161561101d5761101c6110f4565b5b828201905092915050565b600061103382611056565b9050919050565b600061104582611056565b9050919050565b6000819050919050565b600073ffffffffffffffffffffffffffffffffffffffff82169050919050565b6000819050919050565b82818337600083830152505050565b60005b838110156110ad578082015181840152602081019050611092565b838111156110bc576000848401525b50505050565b600060028204905060018216806110da57607f821691505b602082108114156110ee576110ed611123565b5b50919050565b7f4e487b7100000000000000000000000000000000000000000000000000000000600052601160045260246000fd5b7f4e487b7100000000000000000000000000000000000000000000000000000000600052602260045260246000fd5b7f4e487b7100000000000000000000000000000000000000000000000000000000600052604160045260246000fd5b6000601f19601f8301169050919050565b61119b81611028565b81146111a657600080fd5b50565b6111b28161103a565b81146111bd57600080fd5b50565b6111c98161104c565b81146111d457600080fd5b50565b6111e081611076565b81146111eb57600080fd5b5056fea26469706673582212209dbfcfdf4b7086d01579457b52587af0a1e97b110b532ded2ae009722baf848164736f6c63430008000033",
  "immutableReferences": {},
  "source": "// SPDX-License-Identifier: MIT\r\npragma solidity ^0.8.0;\r\n\r\ncontract TimedTrans {\r\n    int256 num=0;//\r\n\r\n    struct Trans{//\r\n        address payable recipient;//\r\n        string eq_name;\r\n        string eq_num;\r\n        int256 transferAmount;//\r\n        int256 lastTransferTimestamp;//\r\n        int256 transferInterval;//s\r\n    }\r\n\r\n    mapping (address => Trans[]) public Trans_list; // \r\n\r\n    //\r\n    function addTransfer(address payable recipient,string memory eq_name,string memory eq_num,int256 transferAmount,int256 transferInterval) public returns(int256){\r\n        Trans_list[msg.sender].push(Trans(recipient,eq_name,eq_num,transferAmount,int256(block.timestamp),transferInterval));\r\n        return int256(Trans_list[msg.sender].length);\r\n        //lastTransferTimestampblock.timestamp\r\n    }\r\n\r\n\r\n\r\n    // \r\n    function get_length()public view returns(int256){       \r\n        return int256(Trans_list[msg.sender].length);\r\n    }\r\n\r\n    //\r\n    function get_transfer(int256 index)public view returns (address payable,string memory,string memory,int256,int256,int256){\r\n        Trans memory T=Trans_list[msg.sender][uint256(index)];\r\n        return (T.recipient,T.eq_name,T.eq_num,T.transferAmount,T.lastTransferTimestamp,T.transferInterval);\r\n    }\r\n\r\n    //\r\n    function sendFunds(int256 index) public payable {\r\n\r\n        int256 lastTransferTimestamp=Trans_list[msg.sender][uint256(index)].lastTransferTimestamp;\r\n        int256 transferInterval=Trans_list[msg.sender][uint256(index)].transferInterval;\r\n        Trans_list[msg.sender][uint256(index)].lastTransferTimestamp+=Trans_list[msg.sender][uint256(index)].transferInterval;\r\n        //\r\n        require(block.timestamp >= uint256(lastTransferTimestamp + transferInterval), \"Transfer interval not elapsed yet\");\r\n\r\n        address recipient=Trans_list[msg.sender][uint256(index)].recipient;\r\n        // int256 transferAmount=Trans_list[msg.sender][uint256(index)].transferAmount;\r\n\r\n        payable(recipient).transfer(msg.value);\r\n        Trans_list[msg.sender][uint256(index)].lastTransferTimestamp=int256(block.timestamp);//\r\n\r\n    }\r\n}\r\n\r\n",
  "sourcePath": "E:\\qq\\\\ocean-Trading _platform\\contracts\\TimedTrans.sol",
  "compiler": {
    "name": "solc",
    "version": "0.8.0+commit.c7dfd78e.Emscripten.clang"
  },
  "schemaVersion": "3.4.16",
  "updatedAt": "2024-03-06T07:20:25.568Z",
  "networkType": "ethereum",
  "devdoc": {
    "kind": "dev",
    "methods": {},
    "version": 1
  },
  "userdoc": {
    "kind": "user",
    "methods": {},
    "version": 1
  }
}